{
  "contractName": "PiggyBankDb",
  "abi": [
    {
      "inputs": [],
      "name": "_initialized",
      "outputs": [
        {
          "internalType": "bool",
          "name": "",
          "type": "bool"
        }
      ],
      "stateMutability": "view",
      "type": "function"
    },
    {
      "inputs": [],
      "name": "owner",
      "outputs": [
        {
          "internalType": "address",
          "name": "",
          "type": "address"
        }
      ],
      "stateMutability": "view",
      "type": "function"
    }
  ],
  "bytecode": "0x608060405234801561001057600080fd5b50610178806100206000396000f3fe608060405234801561001057600080fd5b50600436106100365760003560e01c80633072cf601461003b5780638da5cb5b14610059575b600080fd5b610043610077565b60405161005091906100cb565b60405180910390f35b61006161008a565b60405161006e9190610127565b60405180910390f35b600660149054906101000a900460ff1681565b600660009054906101000a900473ffffffffffffffffffffffffffffffffffffffff1681565b60008115159050919050565b6100c5816100b0565b82525050565b60006020820190506100e060008301846100bc565b92915050565b600073ffffffffffffffffffffffffffffffffffffffff82169050919050565b6000610111826100e6565b9050919050565b61012181610106565b82525050565b600060208201905061013c6000830184610118565b9291505056fea264697066735822122027ed66ce59454d97a33ba5eac150a36eb8447921587c31d7a37e2c384a960fcf64736f6c634300080b0033",
  "immutableReferences": {},
  "source": "// SPDX-License-Identifier: MIT\r\npragma solidity >=0.5.1 <0.8.12; \r\n\r\ncontract PiggyBankDb {\r\n\r\n    enum Lock{\r\n        ONE,\r\n        TWO,\r\n        THREE\r\n    }\r\n\r\n    mapping(address => mapping(bytes32 => uint)) tokenBalance;\r\n    mapping(bytes32 => Tokens) tokenMap;\r\n    mapping(address => mapping(bytes32 => uint)) lockedTokenBalance;\r\n    mapping(address => mapping(uint => LockFunds[])) lockedFunds;\r\n    \r\n    struct Tokens{\r\n        address tokenAddress;\r\n        bytes32 symbol;\r\n    }\r\n\r\n    struct LockFunds{\r\n        address fundOwner;\r\n        bytes32 Symbol;\r\n        uint amount;\r\n        uint startTime;\r\n        uint lockPeriod;\r\n        uint id;\r\n        Lock lockOption;\r\n    }\r\n    \r\n    bytes32[] tokenList;\r\n    uint txId;\r\n    \r\n    address public owner;\r\n    bool public _initialized;\r\n\r\n    mapping (string => uint256) _uintStorage;\r\n    mapping (string => address) _addressStorage;\r\n    mapping (string => bool) _boolStorage;\r\n    mapping (string => string) _stringStorage;\r\n    mapping (string => bytes4) _bytesStorage;\r\n    mapping (string => bytes32) _bytes32Storage;\r\n\r\n}",
  "sourcePath": "C:\\Users\\USER\\Desktop\\Piggy_Bank_Update\\contracts\\PiggyBankDb.sol",
  "compiler": {
    "name": "solc",
    "version": "0.8.11+commit.d7f03943.Emscripten.clang"
  },
  "schemaVersion": "3.4.3",
  "updatedAt": "2022-03-22T15:17:29.078Z",
  "devdoc": {
    "kind": "dev",
    "methods": {},
    "version": 1
  },
  "userdoc": {
    "kind": "user",
    "methods": {},
    "version": 1
  }
}