{
  "contractName": "PiggyBank",
  "abi": [
    {
      "anonymous": false,
      "inputs": [
        {
          "indexed": false,
          "internalType": "address",
          "name": "",
          "type": "address"
        },
        {
          "indexed": false,
          "internalType": "bytes32",
          "name": "",
          "type": "bytes32"
        }
      ],
      "name": "TokenAdded",
      "type": "event"
    },
    {
      "inputs": [],
      "name": "_initialized",
      "outputs": [
        {
          "internalType": "bool",
          "name": "",
          "type": "bool"
        }
      ],
      "stateMutability": "view",
      "type": "function"
    },
    {
      "inputs": [
        {
          "internalType": "address",
          "name": "tokenAddress",
          "type": "address"
        },
        {
          "internalType": "bytes32",
          "name": "symbol",
          "type": "bytes32"
        }
      ],
      "name": "addToken",
      "outputs": [],
      "stateMutability": "nonpayable",
      "type": "function"
    },
    {
      "inputs": [
        {
          "internalType": "uint256",
          "name": "amount",
          "type": "uint256"
        },
        {
          "internalType": "bytes32",
          "name": "symbol",
          "type": "bytes32"
        }
      ],
      "name": "approveDeposit",
      "outputs": [],
      "stateMutability": "nonpayable",
      "type": "function"
    },
    {
      "inputs": [],
      "name": "depositEth",
      "outputs": [],
      "stateMutability": "payable",
      "type": "function"
    },
    {
      "inputs": [
        {
          "internalType": "bytes32",
          "name": "symbol",
          "type": "bytes32"
        },
        {
          "internalType": "uint256",
          "name": "_amount",
          "type": "uint256"
        }
      ],
      "name": "depositToken",
      "outputs": [],
      "stateMutability": "nonpayable",
      "type": "function"
    },
    {
      "inputs": [
        {
          "internalType": "bytes32",
          "name": "symbol",
          "type": "bytes32"
        }
      ],
      "name": "getBalance",
      "outputs": [
        {
          "internalType": "uint256",
          "name": "",
          "type": "uint256"
        }
      ],
      "stateMutability": "view",
      "type": "function"
    },
    {
      "inputs": [
        {
          "internalType": "address",
          "name": "_owner",
          "type": "address"
        }
      ],
      "name": "initialize",
      "outputs": [],
      "stateMutability": "nonpayable",
      "type": "function"
    },
    {
      "inputs": [],
      "name": "owner",
      "outputs": [
        {
          "internalType": "address",
          "name": "",
          "type": "address"
        }
      ],
      "stateMutability": "view",
      "type": "function"
    },
    {
      "inputs": [
        {
          "internalType": "uint256",
          "name": "_amount",
          "type": "uint256"
        }
      ],
      "name": "withdrawEth",
      "outputs": [
        {
          "internalType": "bool",
          "name": "success",
          "type": "bool"
        }
      ],
      "stateMutability": "nonpayable",
      "type": "function"
    },
    {
      "inputs": [
        {
          "internalType": "uint256",
          "name": "_amount",
          "type": "uint256"
        },
        {
          "internalType": "bytes32",
          "name": "symbol",
          "type": "bytes32"
        }
      ],
      "name": "withdrawToken",
      "outputs": [],
      "stateMutability": "nonpayable",
      "type": "function"
    },
    {
      "inputs": [
        {
          "internalType": "uint256",
          "name": "_amount",
          "type": "uint256"
        },
        {
          "internalType": "bytes32",
          "name": "_symbol",
          "type": "bytes32"
        },
        {
          "internalType": "enum PiggyBankDb.Lock",
          "name": "_lockOption",
          "type": "uint8"
        }
      ],
      "name": "lockToken",
      "outputs": [
        {
          "internalType": "bool",
          "name": "success",
          "type": "bool"
        }
      ],
      "stateMutability": "nonpayable",
      "type": "function"
    },
    {
      "inputs": [
        {
          "internalType": "uint256",
          "name": "_amount",
          "type": "uint256"
        },
        {
          "internalType": "bytes32",
          "name": "_symbol",
          "type": "bytes32"
        }
      ],
      "name": "topUp",
      "outputs": [
        {
          "internalType": "bool",
          "name": "success",
          "type": "bool"
        }
      ],
      "stateMutability": "nonpayable",
      "type": "function"
    },
    {
      "inputs": [
        {
          "internalType": "uint256",
          "name": "_amount",
          "type": "uint256"
        },
        {
          "internalType": "bytes32",
          "name": "_symbol",
          "type": "bytes32"
        },
        {
          "internalType": "uint256",
          "name": "_txId",
          "type": "uint256"
        }
      ],
      "name": "withdrawLockedToken",
      "outputs": [
        {
          "internalType": "bool",
          "name": "success",
          "type": "bool"
        }
      ],
      "stateMutability": "nonpayable",
      "type": "function"
    },
    {
      "inputs": [
        {
          "internalType": "bytes32",
          "name": "symbol",
          "type": "bytes32"
        }
      ],
      "name": "getLockedTokenBalance",
      "outputs": [
        {
          "internalType": "uint256",
          "name": "",
          "type": "uint256"
        }
      ],
      "stateMutability": "view",
      "type": "function"
    },
    {
      "inputs": [
        {
          "internalType": "uint256",
          "name": "_txId",
          "type": "uint256"
        }
      ],
      "name": "getLockedFunds",
      "outputs": [
        {
          "components": [
            {
              "internalType": "address",
              "name": "fundOwner",
              "type": "address"
            },
            {
              "internalType": "bytes32",
              "name": "Symbol",
              "type": "bytes32"
            },
            {
              "internalType": "uint256",
              "name": "amount",
              "type": "uint256"
            },
            {
              "internalType": "uint256",
              "name": "startTime",
              "type": "uint256"
            },
            {
              "internalType": "uint256",
              "name": "lockPeriod",
              "type": "uint256"
            },
            {
              "internalType": "uint256",
              "name": "id",
              "type": "uint256"
            },
            {
              "internalType": "enum PiggyBankDb.Lock",
              "name": "lockOption",
              "type": "uint8"
            }
          ],
          "internalType": "struct PiggyBankDb.LockFunds[]",
          "name": "",
          "type": "tuple[]"
        }
      ],
      "stateMutability": "view",
      "type": "function"
    }
  ],
  "bytecode": "0x608060405234801561001057600080fd5b50612aa2806100206000396000f3fe6080604052600436106100e85760003560e01c8063c17acc381161008a578063d0d3b23f11610059578063d0d3b23f146102f9578063d116c14914610322578063f59596c21461034b578063f5ff4bf614610388576100e8565b8063c17acc3814610219578063c1d4b35f14610256578063c311d04914610293578063c4d66de8146102d0576100e8565b80637d34900a116100c65780637d34900a1461015f5780638da5cb5b146101885780638e739461146101b3578063c0c1eebc146101f0576100e8565b80630deccf3e146100ed5780633072cf601461012a578063439370b114610155575b600080fd5b3480156100f957600080fd5b50610114600480360381019061010f9190612061565b6103c5565b60405161012191906122ab565b60405180910390f35b34801561013657600080fd5b5061013f610537565b60405161014c91906122e8565b60405180910390f35b61015d61054a565b005b34801561016b57600080fd5b506101866004803603810190610181919061232f565b610643565b005b34801561019457600080fd5b5061019d6108ee565b6040516101aa919061237e565b60405180910390f35b3480156101bf57600080fd5b506101da60048036038101906101d59190612399565b610914565b6040516101e791906123d5565b60405180910390f35b3480156101fc57600080fd5b506102176004803603810190610212919061241c565b61096e565b005b34801561022557600080fd5b50610240600480360381019061023b9190612481565b610af7565b60405161024d91906122e8565b60405180910390f35b34801561026257600080fd5b5061027d60048036038101906102789190612399565b61133c565b60405161028a91906123d5565b60405180910390f35b34801561029f57600080fd5b506102ba60048036038101906102b59190612061565b611396565b6040516102c791906122e8565b60405180910390f35b3480156102dc57600080fd5b506102f760048036038101906102f291906124d4565b611511565b005b34801561030557600080fd5b50610320600480360381019061031b919061232f565b611652565b005b34801561032e57600080fd5b5061034960048036038101906103449190612501565b61170b565b005b34801561035757600080fd5b50610372600480360381019061036d9190612541565b611925565b60405161037f91906122e8565b60405180910390f35b34801561039457600080fd5b506103af60048036038101906103aa919061232f565b611e74565b6040516103bc91906122e8565b60405180910390f35b6060600460003373ffffffffffffffffffffffffffffffffffffffff1673ffffffffffffffffffffffffffffffffffffffff1681526020019081526020016000206000838152602001908152602001600020805480602002602001604051908101604052809291908181526020016000905b8282101561052c57838290600052602060002090600702016040518060e00160405290816000820160009054906101000a900473ffffffffffffffffffffffffffffffffffffffff1673ffffffffffffffffffffffffffffffffffffffff1673ffffffffffffffffffffffffffffffffffffffff16815260200160018201548152602001600282015481526020016003820154815260200160048201548152602001600582015481526020016006820160009054906101000a900460ff16600281111561050757610506612123565b5b600281111561051957610518612123565b5b8152505081526020019060010190610437565b505050509050919050565b600760149054906101000a900460ff1681565b6105cd34600160003373ffffffffffffffffffffffffffffffffffffffff1673ffffffffffffffffffffffffffffffffffffffff16815260200190815260200160002060007f4554480000000000000000000000000000000000000000000000000000000000815260200190815260200160002054611fc690919063ffffffff16565b600160003373ffffffffffffffffffffffffffffffffffffffff1673ffffffffffffffffffffffffffffffffffffffff16815260200190815260200160002060007f4554480000000000000000000000000000000000000000000000000000000000815260200190815260200160002081905550565b80600073ffffffffffffffffffffffffffffffffffffffff166002600083815260200190815260200160002060000160009054906101000a900473ffffffffffffffffffffffffffffffffffffffff1673ffffffffffffffffffffffffffffffffffffffff1614156106ea576040517f08c379a00000000000000000000000000000000000000000000000000000000081526004016106e1906125f1565b60405180910390fd5b82600160003373ffffffffffffffffffffffffffffffffffffffff1673ffffffffffffffffffffffffffffffffffffffff168152602001908152602001600020600084815260200190815260200160002054101561077d576040517f08c379a00000000000000000000000000000000000000000000000000000000081526004016107749061265d565b60405180910390fd5b6107e083600160003373ffffffffffffffffffffffffffffffffffffffff1673ffffffffffffffffffffffffffffffffffffffff168152602001908152602001600020600085815260200190815260200160002054611fdc90919063ffffffff16565b600160003373ffffffffffffffffffffffffffffffffffffffff1673ffffffffffffffffffffffffffffffffffffffff1681526020019081526020016000206000848152602001908152602001600020819055506002600083815260200190815260200160002060000160009054906101000a900473ffffffffffffffffffffffffffffffffffffffff1673ffffffffffffffffffffffffffffffffffffffff1663a9059cbb33856040518363ffffffff1660e01b81526004016108a592919061267d565b6020604051808303816000875af11580156108c4573d6000803e3d6000fd5b505050506040513d601f19601f820116820180604052508101906108e891906126d2565b50505050565b600760009054906101000a900473ffffffffffffffffffffffffffffffffffffffff1681565b6000600160003373ffffffffffffffffffffffffffffffffffffffff1673ffffffffffffffffffffffffffffffffffffffff1681526020019081526020016000206000838152602001908152602001600020549050919050565b600760009054906101000a900473ffffffffffffffffffffffffffffffffffffffff1673ffffffffffffffffffffffffffffffffffffffff163373ffffffffffffffffffffffffffffffffffffffff16146109c857600080fd5b600073ffffffffffffffffffffffffffffffffffffffff168273ffffffffffffffffffffffffffffffffffffffff161415610a38576040517f08c379a0000000000000000000000000000000000000000000000000000000008152600401610a2f9061274b565b60405180910390fd5b60405180604001604052808373ffffffffffffffffffffffffffffffffffffffff168152602001828152506002600083815260200190815260200160002060008201518160000160006101000a81548173ffffffffffffffffffffffffffffffffffffffff021916908373ffffffffffffffffffffffffffffffffffffffff1602179055506020820151816001015590505060058190806001815401808255809150506001900390600052602060002001600090919091909150555050565b600083600160003373ffffffffffffffffffffffffffffffffffffffff1673ffffffffffffffffffffffffffffffffffffffff1681526020019081526020016000206000858152602001908152602001600020541015610b8c576040517f08c379a0000000000000000000000000000000000000000000000000000000008152600401610b83906127b7565b60405180910390fd5b6000600460003373ffffffffffffffffffffffffffffffffffffffff1673ffffffffffffffffffffffffffffffffffffffff1681526020019081526020016000206000846002811115610be257610be1612123565b5b8152602001908152602001600020905060006002811115610c0657610c05612123565b5b836002811115610c1957610c18612123565b5b1415610dde576040518060e001604052803373ffffffffffffffffffffffffffffffffffffffff168152602001858152602001868152602001428152602001610c6e6224ea0042611fc690919063ffffffff16565b81526020016006548152602001846002811115610c8e57610c8d612123565b5b81525050806040518060e001604052803373ffffffffffffffffffffffffffffffffffffffff168152602001868152602001878152602001428152602001610ce26224ea0042611fc690919063ffffffff16565b81526020016006548152602001856002811115610d0257610d01612123565b5b815250908060018154018082558091505060019003906000526020600020906007020160009091909190915060008201518160000160006101000a81548173ffffffffffffffffffffffffffffffffffffffff021916908373ffffffffffffffffffffffffffffffffffffffff1602179055506020820151816001015560408201518160020155606082015181600301556080820151816004015560a0820151816005015560c08201518160060160006101000a81548160ff02191690836002811115610dd257610dd1612123565b5b021790555050506111b5565b60016002811115610df257610df1612123565b5b836002811115610e0557610e04612123565b5b1415610fca576040518060e001604052803373ffffffffffffffffffffffffffffffffffffffff168152602001858152602001868152602001428152602001610e5a62eff10042611fc690919063ffffffff16565b81526020016006548152602001846002811115610e7a57610e79612123565b5b81525050806040518060e001604052803373ffffffffffffffffffffffffffffffffffffffff168152602001868152602001878152602001428152602001610ece62eff10042611fc690919063ffffffff16565b81526020016006548152602001856002811115610eee57610eed612123565b5b815250908060018154018082558091505060019003906000526020600020906007020160009091909190915060008201518160000160006101000a81548173ffffffffffffffffffffffffffffffffffffffff021916908373ffffffffffffffffffffffffffffffffffffffff1602179055506020820151816001015560408201518160020155606082015181600301556080820151816004015560a0820151816005015560c08201518160060160006101000a81548160ff02191690836002811115610fbe57610fbd612123565b5b021790555050506111b4565b600280811115610fdd57610fdc612123565b5b836002811115610ff057610fef612123565b5b14156111b3576040518060e001604052803373ffffffffffffffffffffffffffffffffffffffff1681526020018581526020018681526020014281526020016110466301dfe20042611fc690919063ffffffff16565b8152602001600654815260200184600281111561106657611065612123565b5b81525050806040518060e001604052803373ffffffffffffffffffffffffffffffffffffffff1681526020018681526020018781526020014281526020016110bb6301dfe20042611fc690919063ffffffff16565b815260200160065481526020018560028111156110db576110da612123565b5b815250908060018154018082558091505060019003906000526020600020906007020160009091909190915060008201518160000160006101000a81548173ffffffffffffffffffffffffffffffffffffffff021916908373ffffffffffffffffffffffffffffffffffffffff1602179055506020820151816001015560408201518160020155606082015181600301556080820151816004015560a0820151816005015560c08201518160060160006101000a81548160ff021916908360028111156111ab576111aa612123565b5b021790555050505b5b5b61121885600160003373ffffffffffffffffffffffffffffffffffffffff1673ffffffffffffffffffffffffffffffffffffffff168152602001908152602001600020600087815260200190815260200160002054611fdc90919063ffffffff16565b600160003373ffffffffffffffffffffffffffffffffffffffff1673ffffffffffffffffffffffffffffffffffffffff16815260200190815260200160002060008681526020019081526020016000208190555084600360003373ffffffffffffffffffffffffffffffffffffffff1673ffffffffffffffffffffffffffffffffffffffff1681526020019081526020016000206000868152602001908152602001600020546112c89190612806565b600360003373ffffffffffffffffffffffffffffffffffffffff1673ffffffffffffffffffffffffffffffffffffffff1681526020019081526020016000206000868152602001908152602001600020819055506006600081548092919061132f9061285c565b9190505550509392505050565b6000600360003373ffffffffffffffffffffffffffffffffffffffff1673ffffffffffffffffffffffffffffffffffffffff1681526020019081526020016000206000838152602001908152602001600020549050919050565b600081600160003373ffffffffffffffffffffffffffffffffffffffff1673ffffffffffffffffffffffffffffffffffffffff16815260200190815260200160002060007f4554480000000000000000000000000000000000000000000000000000000000815260200190815260200160002054101561141557600080fd5b61149882600160003373ffffffffffffffffffffffffffffffffffffffff1673ffffffffffffffffffffffffffffffffffffffff16815260200190815260200160002060007f4554480000000000000000000000000000000000000000000000000000000000815260200190815260200160002054611fdc90919063ffffffff16565b600160003373ffffffffffffffffffffffffffffffffffffffff1673ffffffffffffffffffffffffffffffffffffffff16815260200190815260200160002060007f4554480000000000000000000000000000000000000000000000000000000000815260200190815260200160002081905550919050565b600060019054906101000a900460ff166115395760008054906101000a900460ff1615611542565b611541611ff2565b5b611581576040517f08c379a000000000000000000000000000000000000000000000000000000000815260040161157890612917565b60405180910390fd5b60008060019054906101000a900460ff1615905080156115d1576001600060016101000a81548160ff02191690831515021790555060016000806101000a81548160ff0219169083151502179055505b81600760006101000a81548173ffffffffffffffffffffffffffffffffffffffff021916908373ffffffffffffffffffffffffffffffffffffffff1602179055506001600760146101000a81548160ff021916908315150217905550801561164e5760008060016101000a81548160ff0219169083151502179055505b5050565b6002600082815260200190815260200160002060000160009054906101000a900473ffffffffffffffffffffffffffffffffffffffff1673ffffffffffffffffffffffffffffffffffffffff1663095ea7b330846040518363ffffffff1660e01b81526004016116c392919061267d565b6020604051808303816000875af11580156116e2573d6000803e3d6000fd5b505050506040513d601f19601f8201168201806040525081019061170691906126d2565b505050565b81600073ffffffffffffffffffffffffffffffffffffffff166002600083815260200190815260200160002060000160009054906101000a900473ffffffffffffffffffffffffffffffffffffffff1673ffffffffffffffffffffffffffffffffffffffff1614156117b2576040517f08c379a00000000000000000000000000000000000000000000000000000000081526004016117a9906125f1565b60405180910390fd5b61181582600160003373ffffffffffffffffffffffffffffffffffffffff1673ffffffffffffffffffffffffffffffffffffffff168152602001908152602001600020600086815260200190815260200160002054611fc690919063ffffffff16565b600160003373ffffffffffffffffffffffffffffffffffffffff1673ffffffffffffffffffffffffffffffffffffffff1681526020019081526020016000206000858152602001908152602001600020819055506002600084815260200190815260200160002060000160009054906101000a900473ffffffffffffffffffffffffffffffffffffffff1673ffffffffffffffffffffffffffffffffffffffff166323b872dd3330856040518463ffffffff1660e01b81526004016118dc93929190612937565b6020604051808303816000875af11580156118fb573d6000803e3d6000fd5b505050506040513d601f19601f8201168201806040525081019061191f91906126d2565b50505050565b600080600460003373ffffffffffffffffffffffffffffffffffffffff1673ffffffffffffffffffffffffffffffffffffffff1681526020019081526020016000206000848152602001908152602001600020905084600360003373ffffffffffffffffffffffffffffffffffffffff1673ffffffffffffffffffffffffffffffffffffffff16815260200190815260200160002060008681526020019081526020016000205410156119d757600080fd5b8083815481106119ea576119e961296e565b5b906000526020600020906007020160040154421015611a0857600080fd5b808381548110611a1b57611a1a61296e565b5b906000526020600020906007020160000160009054906101000a900473ffffffffffffffffffffffffffffffffffffffff1673ffffffffffffffffffffffffffffffffffffffff163373ffffffffffffffffffffffffffffffffffffffff1614611a8457600080fd5b611ae785600360003373ffffffffffffffffffffffffffffffffffffffff1673ffffffffffffffffffffffffffffffffffffffff168152602001908152602001600020600087815260200190815260200160002054611fdc90919063ffffffff16565b600360003373ffffffffffffffffffffffffffffffffffffffff1673ffffffffffffffffffffffffffffffffffffffff168152602001908152602001600020600086815260200190815260200160002081905550611b9e85600160003373ffffffffffffffffffffffffffffffffffffffff1673ffffffffffffffffffffffffffffffffffffffff168152602001908152602001600020600087815260200190815260200160002054611fc690919063ffffffff16565b600160003373ffffffffffffffffffffffffffffffffffffffff1673ffffffffffffffffffffffffffffffffffffffff168152602001908152602001600020600086815260200190815260200160002081905550611bfc8585610643565b6000600360003373ffffffffffffffffffffffffffffffffffffffff1673ffffffffffffffffffffffffffffffffffffffff168152602001908152602001600020600086815260200190815260200160002054148015611c805750808381548110611c6a57611c6961296e565b5b9060005260206000209060070201600401544210155b15611e6c5760008390505b60018280549050611c9c919061299d565b811015611ddd5781600182611cb19190612806565b81548110611cc257611cc161296e565b5b9060005260206000209060070201828281548110611ce357611ce261296e565b5b90600052602060002090600702016000820160009054906101000a900473ffffffffffffffffffffffffffffffffffffffff168160000160006101000a81548173ffffffffffffffffffffffffffffffffffffffff021916908373ffffffffffffffffffffffffffffffffffffffff16021790555060018201548160010155600282015481600201556003820154816003015560048201548160040155600582015481600501556006820160009054906101000a900460ff168160060160006101000a81548160ff02191690836002811115611dc257611dc1612123565b5b02179055509050508080611dd59061285c565b915050611c8b565b5080805480611def57611dee6129d1565b5b6001900381819060005260206000209060070201600080820160006101000a81549073ffffffffffffffffffffffffffffffffffffffff0219169055600182016000905560028201600090556003820160009055600482016000905560058201600090556006820160006101000a81549060ff0219169055505090555b509392505050565b600080600360003373ffffffffffffffffffffffffffffffffffffffff1673ffffffffffffffffffffffffffffffffffffffff1681526020019081526020016000206000848152602001908152602001600020541015611f09576040517f08c379a0000000000000000000000000000000000000000000000000000000008152600401611f0090612a4c565b60405180910390fd5b611f6c83600360003373ffffffffffffffffffffffffffffffffffffffff1673ffffffffffffffffffffffffffffffffffffffff168152602001908152602001600020600085815260200190815260200160002054611fc690919063ffffffff16565b600360003373ffffffffffffffffffffffffffffffffffffffff1673ffffffffffffffffffffffffffffffffffffffff16815260200190815260200160002060008481526020019081526020016000208190555092915050565b60008183611fd49190612806565b905092915050565b60008183611fea919061299d565b905092915050565b6000611ffd30612003565b15905090565b6000808273ffffffffffffffffffffffffffffffffffffffff163b119050919050565b600080fd5b6000819050919050565b61203e8161202b565b811461204957600080fd5b50565b60008135905061205b81612035565b92915050565b60006020828403121561207757612076612026565b5b60006120858482850161204c565b91505092915050565b600081519050919050565b600082825260208201905092915050565b6000819050602082019050919050565b600073ffffffffffffffffffffffffffffffffffffffff82169050919050565b60006120e5826120ba565b9050919050565b6120f5816120da565b82525050565b6000819050919050565b61210e816120fb565b82525050565b61211d8161202b565b82525050565b7f4e487b7100000000000000000000000000000000000000000000000000000000600052602160045260246000fd5b6003811061216357612162612123565b5b50565b600081905061217482612152565b919050565b600061218482612166565b9050919050565b61219481612179565b82525050565b60e0820160008201516121b060008501826120ec565b5060208201516121c36020850182612105565b5060408201516121d66040850182612114565b5060608201516121e96060850182612114565b5060808201516121fc6080850182612114565b5060a082015161220f60a0850182612114565b5060c082015161222260c085018261218b565b50505050565b6000612234838361219a565b60e08301905092915050565b6000602082019050919050565b60006122588261208e565b6122628185612099565b935061226d836120aa565b8060005b8381101561229e5781516122858882612228565b975061229083612240565b925050600181019050612271565b5085935050505092915050565b600060208201905081810360008301526122c5818461224d565b905092915050565b60008115159050919050565b6122e2816122cd565b82525050565b60006020820190506122fd60008301846122d9565b92915050565b61230c816120fb565b811461231757600080fd5b50565b60008135905061232981612303565b92915050565b6000806040838503121561234657612345612026565b5b60006123548582860161204c565b92505060206123658582860161231a565b9150509250929050565b612378816120da565b82525050565b6000602082019050612393600083018461236f565b92915050565b6000602082840312156123af576123ae612026565b5b60006123bd8482850161231a565b91505092915050565b6123cf8161202b565b82525050565b60006020820190506123ea60008301846123c6565b92915050565b6123f9816120da565b811461240457600080fd5b50565b600081359050612416816123f0565b92915050565b6000806040838503121561243357612432612026565b5b600061244185828601612407565b92505060206124528582860161231a565b9150509250929050565b6003811061246957600080fd5b50565b60008135905061247b8161245c565b92915050565b60008060006060848603121561249a57612499612026565b5b60006124a88682870161204c565b93505060206124b98682870161231a565b92505060406124ca8682870161246c565b9150509250925092565b6000602082840312156124ea576124e9612026565b5b60006124f884828501612407565b91505092915050565b6000806040838503121561251857612517612026565b5b60006125268582860161231a565b92505060206125378582860161204c565b9150509250929050565b60008060006060848603121561255a57612559612026565b5b60006125688682870161204c565b93505060206125798682870161231a565b925050604061258a8682870161204c565b9150509250925092565b600082825260208201905092915050565b7f4e6f7420612076616c696420746f6b656e000000000000000000000000000000600082015250565b60006125db601183612594565b91506125e6826125a5565b602082019050919050565b6000602082019050818103600083015261260a816125ce565b9050919050565b7f42616c616e6365204e6f7420537566666963656e740000000000000000000000600082015250565b6000612647601583612594565b915061265282612611565b602082019050919050565b600060208201905081810360008301526126768161263a565b9050919050565b6000604082019050612692600083018561236f565b61269f60208301846123c6565b9392505050565b6126af816122cd565b81146126ba57600080fd5b50565b6000815190506126cc816126a6565b92915050565b6000602082840312156126e8576126e7612026565b5b60006126f6848285016126bd565b91505092915050565b7f496e76616c696420546f6b656e20416464726573730000000000000000000000600082015250565b6000612735601583612594565b9150612740826126ff565b602082019050919050565b6000602082019050818103600083015261276481612728565b9050919050565b7f4e6f7420656e6f7567682062616c616e63650000000000000000000000000000600082015250565b60006127a1601283612594565b91506127ac8261276b565b602082019050919050565b600060208201905081810360008301526127d081612794565b9050919050565b7f4e487b7100000000000000000000000000000000000000000000000000000000600052601160045260246000fd5b60006128118261202b565b915061281c8361202b565b9250827fffffffffffffffffffffffffffffffffffffffffffffffffffffffffffffffff03821115612851576128506127d7565b5b828201905092915050565b60006128678261202b565b91507fffffffffffffffffffffffffffffffffffffffffffffffffffffffffffffffff82141561289a576128996127d7565b5b600182019050919050565b7f496e697469616c697a61626c653a20636f6e747261637420697320616c72656160008201527f647920696e697469616c697a6564000000000000000000000000000000000000602082015250565b6000612901602e83612594565b915061290c826128a5565b604082019050919050565b60006020820190508181036000830152612930816128f4565b9050919050565b600060608201905061294c600083018661236f565b612959602083018561236f565b61296660408301846123c6565b949350505050565b7f4e487b7100000000000000000000000000000000000000000000000000000000600052603260045260246000fd5b60006129a88261202b565b91506129b38361202b565b9250828210156129c6576129c56127d7565b5b828203905092915050565b7f4e487b7100000000000000000000000000000000000000000000000000000000600052603160045260246000fd5b7f476f204c6f636b20536f6d6520546f6b656e0000000000000000000000000000600082015250565b6000612a36601283612594565b9150612a4182612a00565b602082019050919050565b60006020820190508181036000830152612a6581612a29565b905091905056fea2646970667358221220115be9a47d59d311accb86a57857371855a80c22e3174a4d04bd764ab2aa76de64736f6c634300080b0033",
  "immutableReferences": {},
  "source": "// SPDX-License-Identifier: MIT\r\npragma solidity >=0.5.1 <0.8.12;\r\npragma experimental ABIEncoderV2;\r\n\r\nimport \"./Wallet.sol\"; \r\n\r\n\r\ncontract PiggyBank is Wallet {\r\n\r\n    using SafeMathUpgradeable for uint;\r\n\r\n    function lockToken (uint _amount, bytes32 _symbol, Lock _lockOption) external returns(bool success){\r\n        require(tokenBalance[msg.sender][_symbol] >= _amount, \"Not enough balance\");\r\n        LockFunds[] storage newLockFunds = lockedFunds[msg.sender][uint(_lockOption)];\r\n        \r\n        if(_lockOption == Lock.ONE){\r\n            LockFunds(msg.sender, _symbol, _amount, block.timestamp, block.timestamp.add(4 weeks), txId, _lockOption);\r\n            newLockFunds.push(LockFunds(msg.sender, _symbol, _amount, block.timestamp, block.timestamp.add(4 weeks), txId, _lockOption));\r\n        }\r\n        \r\n        else if(_lockOption == Lock.TWO){\r\n            LockFunds(msg.sender, _symbol, _amount, block.timestamp, block.timestamp.add(26 weeks), txId, _lockOption);\r\n            newLockFunds.push(LockFunds(msg.sender, _symbol, _amount, block.timestamp, block.timestamp.add(26 weeks), txId, _lockOption));\r\n        }\r\n       \r\n        else if(_lockOption == Lock.THREE){\r\n            LockFunds(msg.sender, _symbol, _amount, block.timestamp, block.timestamp.add(52 weeks), txId, _lockOption);\r\n            newLockFunds.push(LockFunds(msg.sender, _symbol, _amount, block.timestamp, block.timestamp.add(52 weeks), txId, _lockOption));\r\n        }\r\n\r\n        tokenBalance[msg.sender][_symbol] = tokenBalance[msg.sender][_symbol].sub(_amount);\r\n        lockedTokenBalance[msg.sender][_symbol] = lockedTokenBalance[msg.sender][_symbol] + _amount;\r\n        txId++;\r\n        return success;\r\n    }\r\n\r\n    function topUp(uint _amount, bytes32 _symbol) external returns(bool success){\r\n        require(lockedTokenBalance[msg.sender][_symbol] >= 0, \"Go Lock Some Token\");\r\n        lockedTokenBalance[msg.sender][_symbol] = lockedTokenBalance[msg.sender][_symbol].add(_amount);\r\n        return success;\r\n    }\r\n\r\n    function withdrawLockedToken(uint _amount, bytes32 _symbol, uint _txId) external returns(bool success){\r\n        LockFunds[] storage newLockFunds = lockedFunds[msg.sender][_txId];\r\n        require(lockedTokenBalance[msg.sender][_symbol] >= _amount);\r\n        require(block.timestamp >= newLockFunds[_txId].lockPeriod);\r\n        require(msg.sender == newLockFunds[_txId].fundOwner);\r\n        lockedTokenBalance[msg.sender][_symbol] = lockedTokenBalance[msg.sender][_symbol].sub(_amount);\r\n        tokenBalance[msg.sender][_symbol] = tokenBalance[msg.sender][_symbol].add(_amount);\r\n        withdrawToken(_amount, _symbol);\r\n\r\n        if(lockedTokenBalance[msg.sender][_symbol] == 0 && block.timestamp >= newLockFunds[_txId].lockPeriod){\r\n            for(uint i = _txId; i < newLockFunds.length - 1; i++){\r\n                newLockFunds[i] = newLockFunds[i + 1];\r\n            }\r\n            newLockFunds.pop();\r\n        }\r\n\r\n        return success;\r\n    }\r\n\r\n    function getLockedTokenBalance(bytes32 symbol) external view returns(uint){\r\n        return lockedTokenBalance[msg.sender][symbol];\r\n    }\r\n\r\n    function getLockedFunds(uint _txId) external view returns(LockFunds[] memory){\r\n        return lockedFunds[msg.sender][_txId];\r\n    }\r\n\r\n}\r\n",
  "sourcePath": "C:\\Users\\USER\\Desktop\\Piggy_Bank_Update\\contracts\\PiggyBank.sol",
  "compiler": {
    "name": "solc",
    "version": "0.8.11+commit.d7f03943.Emscripten.clang"
  },
  "schemaVersion": "3.4.3",
  "updatedAt": "2022-03-22T15:17:29.061Z",
  "devdoc": {
    "kind": "dev",
    "methods": {},
    "version": 1
  },
  "userdoc": {
    "kind": "user",
    "methods": {},
    "version": 1
  }
}