{
  "contractName": "Wallet",
  "abi": [
    {
      "anonymous": false,
      "inputs": [
        {
          "indexed": false,
          "internalType": "address",
          "name": "",
          "type": "address"
        },
        {
          "indexed": false,
          "internalType": "bytes32",
          "name": "",
          "type": "bytes32"
        }
      ],
      "name": "TokenAdded",
      "type": "event"
    },
    {
      "inputs": [],
      "name": "_initialized",
      "outputs": [
        {
          "internalType": "bool",
          "name": "",
          "type": "bool"
        }
      ],
      "stateMutability": "view",
      "type": "function"
    },
    {
      "inputs": [],
      "name": "owner",
      "outputs": [
        {
          "internalType": "address",
          "name": "",
          "type": "address"
        }
      ],
      "stateMutability": "view",
      "type": "function"
    },
    {
      "inputs": [
        {
          "internalType": "address",
          "name": "_owner",
          "type": "address"
        }
      ],
      "name": "initialize",
      "outputs": [],
      "stateMutability": "nonpayable",
      "type": "function"
    },
    {
      "inputs": [
        {
          "internalType": "address",
          "name": "tokenAddress",
          "type": "address"
        },
        {
          "internalType": "bytes32",
          "name": "symbol",
          "type": "bytes32"
        }
      ],
      "name": "addToken",
      "outputs": [],
      "stateMutability": "nonpayable",
      "type": "function"
    },
    {
      "inputs": [
        {
          "internalType": "bytes32",
          "name": "symbol",
          "type": "bytes32"
        },
        {
          "internalType": "uint256",
          "name": "_amount",
          "type": "uint256"
        }
      ],
      "name": "depositToken",
      "outputs": [],
      "stateMutability": "nonpayable",
      "type": "function"
    },
    {
      "inputs": [
        {
          "internalType": "uint256",
          "name": "amount",
          "type": "uint256"
        },
        {
          "internalType": "bytes32",
          "name": "symbol",
          "type": "bytes32"
        }
      ],
      "name": "approveDeposit",
      "outputs": [],
      "stateMutability": "nonpayable",
      "type": "function"
    },
    {
      "inputs": [
        {
          "internalType": "uint256",
          "name": "_amount",
          "type": "uint256"
        },
        {
          "internalType": "bytes32",
          "name": "symbol",
          "type": "bytes32"
        }
      ],
      "name": "withdrawToken",
      "outputs": [],
      "stateMutability": "nonpayable",
      "type": "function"
    },
    {
      "inputs": [],
      "name": "depositEth",
      "outputs": [],
      "stateMutability": "payable",
      "type": "function"
    },
    {
      "inputs": [
        {
          "internalType": "uint256",
          "name": "_amount",
          "type": "uint256"
        }
      ],
      "name": "withdrawEth",
      "outputs": [
        {
          "internalType": "bool",
          "name": "success",
          "type": "bool"
        }
      ],
      "stateMutability": "nonpayable",
      "type": "function"
    },
    {
      "inputs": [
        {
          "internalType": "bytes32",
          "name": "symbol",
          "type": "bytes32"
        }
      ],
      "name": "getBalance",
      "outputs": [
        {
          "internalType": "uint256",
          "name": "",
          "type": "uint256"
        }
      ],
      "stateMutability": "view",
      "type": "function"
    }
  ],
  "bytecode": "0x608060405234801561001057600080fd5b5061141b806100206000396000f3fe6080604052600436106100915760003560e01c8063c0c1eebc11610059578063c0c1eebc1461015c578063c311d04914610185578063c4d66de8146101c2578063d0d3b23f146101eb578063d116c1491461021457610091565b80633072cf6014610096578063439370b1146100c15780637d34900a146100cb5780638da5cb5b146100f45780638e7394611461011f575b600080fd5b3480156100a257600080fd5b506100ab61023d565b6040516100b89190610e07565b60405180910390f35b6100c9610250565b005b3480156100d757600080fd5b506100f260048036038101906100ed9190610e93565b610349565b005b34801561010057600080fd5b506101096105f4565b6040516101169190610f14565b60405180910390f35b34801561012b57600080fd5b5061014660048036038101906101419190610f2f565b61061a565b6040516101539190610f6b565b60405180910390f35b34801561016857600080fd5b50610183600480360381019061017e9190610fb2565b610674565b005b34801561019157600080fd5b506101ac60048036038101906101a79190610ff2565b6107fd565b6040516101b99190610e07565b60405180910390f35b3480156101ce57600080fd5b506101e960048036038101906101e4919061101f565b610978565b005b3480156101f757600080fd5b50610212600480360381019061020d9190610e93565b610ab9565b005b34801561022057600080fd5b5061023b6004803603810190610236919061104c565b610b72565b005b600760149054906101000a900460ff1681565b6102d334600160003373ffffffffffffffffffffffffffffffffffffffff1673ffffffffffffffffffffffffffffffffffffffff16815260200190815260200160002060007f4554480000000000000000000000000000000000000000000000000000000000815260200190815260200160002054610d8c90919063ffffffff16565b600160003373ffffffffffffffffffffffffffffffffffffffff1673ffffffffffffffffffffffffffffffffffffffff16815260200190815260200160002060007f4554480000000000000000000000000000000000000000000000000000000000815260200190815260200160002081905550565b80600073ffffffffffffffffffffffffffffffffffffffff166002600083815260200190815260200160002060000160009054906101000a900473ffffffffffffffffffffffffffffffffffffffff1673ffffffffffffffffffffffffffffffffffffffff1614156103f0576040517f08c379a00000000000000000000000000000000000000000000000000000000081526004016103e7906110e9565b60405180910390fd5b82600160003373ffffffffffffffffffffffffffffffffffffffff1673ffffffffffffffffffffffffffffffffffffffff1681526020019081526020016000206000848152602001908152602001600020541015610483576040517f08c379a000000000000000000000000000000000000000000000000000000000815260040161047a90611155565b60405180910390fd5b6104e683600160003373ffffffffffffffffffffffffffffffffffffffff1673ffffffffffffffffffffffffffffffffffffffff168152602001908152602001600020600085815260200190815260200160002054610da290919063ffffffff16565b600160003373ffffffffffffffffffffffffffffffffffffffff1673ffffffffffffffffffffffffffffffffffffffff1681526020019081526020016000206000848152602001908152602001600020819055506002600083815260200190815260200160002060000160009054906101000a900473ffffffffffffffffffffffffffffffffffffffff1673ffffffffffffffffffffffffffffffffffffffff1663a9059cbb33856040518363ffffffff1660e01b81526004016105ab929190611175565b6020604051808303816000875af11580156105ca573d6000803e3d6000fd5b505050506040513d601f19601f820116820180604052508101906105ee91906111ca565b50505050565b600760009054906101000a900473ffffffffffffffffffffffffffffffffffffffff1681565b6000600160003373ffffffffffffffffffffffffffffffffffffffff1673ffffffffffffffffffffffffffffffffffffffff1681526020019081526020016000206000838152602001908152602001600020549050919050565b600760009054906101000a900473ffffffffffffffffffffffffffffffffffffffff1673ffffffffffffffffffffffffffffffffffffffff163373ffffffffffffffffffffffffffffffffffffffff16146106ce57600080fd5b600073ffffffffffffffffffffffffffffffffffffffff168273ffffffffffffffffffffffffffffffffffffffff16141561073e576040517f08c379a000000000000000000000000000000000000000000000000000000000815260040161073590611243565b60405180910390fd5b60405180604001604052808373ffffffffffffffffffffffffffffffffffffffff168152602001828152506002600083815260200190815260200160002060008201518160000160006101000a81548173ffffffffffffffffffffffffffffffffffffffff021916908373ffffffffffffffffffffffffffffffffffffffff1602179055506020820151816001015590505060058190806001815401808255809150506001900390600052602060002001600090919091909150555050565b600081600160003373ffffffffffffffffffffffffffffffffffffffff1673ffffffffffffffffffffffffffffffffffffffff16815260200190815260200160002060007f4554480000000000000000000000000000000000000000000000000000000000815260200190815260200160002054101561087c57600080fd5b6108ff82600160003373ffffffffffffffffffffffffffffffffffffffff1673ffffffffffffffffffffffffffffffffffffffff16815260200190815260200160002060007f4554480000000000000000000000000000000000000000000000000000000000815260200190815260200160002054610da290919063ffffffff16565b600160003373ffffffffffffffffffffffffffffffffffffffff1673ffffffffffffffffffffffffffffffffffffffff16815260200190815260200160002060007f4554480000000000000000000000000000000000000000000000000000000000815260200190815260200160002081905550919050565b600060019054906101000a900460ff166109a05760008054906101000a900460ff16156109a9565b6109a8610db8565b5b6109e8576040517f08c379a00000000000000000000000000000000000000000000000000000000081526004016109df906112d5565b60405180910390fd5b60008060019054906101000a900460ff161590508015610a38576001600060016101000a81548160ff02191690831515021790555060016000806101000a81548160ff0219169083151502179055505b81600760006101000a81548173ffffffffffffffffffffffffffffffffffffffff021916908373ffffffffffffffffffffffffffffffffffffffff1602179055506001600760146101000a81548160ff0219169083151502179055508015610ab55760008060016101000a81548160ff0219169083151502179055505b5050565b6002600082815260200190815260200160002060000160009054906101000a900473ffffffffffffffffffffffffffffffffffffffff1673ffffffffffffffffffffffffffffffffffffffff1663095ea7b330846040518363ffffffff1660e01b8152600401610b2a929190611175565b6020604051808303816000875af1158015610b49573d6000803e3d6000fd5b505050506040513d601f19601f82011682018060405250810190610b6d91906111ca565b505050565b81600073ffffffffffffffffffffffffffffffffffffffff166002600083815260200190815260200160002060000160009054906101000a900473ffffffffffffffffffffffffffffffffffffffff1673ffffffffffffffffffffffffffffffffffffffff161415610c19576040517f08c379a0000000000000000000000000000000000000000000000000000000008152600401610c10906110e9565b60405180910390fd5b610c7c82600160003373ffffffffffffffffffffffffffffffffffffffff1673ffffffffffffffffffffffffffffffffffffffff168152602001908152602001600020600086815260200190815260200160002054610d8c90919063ffffffff16565b600160003373ffffffffffffffffffffffffffffffffffffffff1673ffffffffffffffffffffffffffffffffffffffff1681526020019081526020016000206000858152602001908152602001600020819055506002600084815260200190815260200160002060000160009054906101000a900473ffffffffffffffffffffffffffffffffffffffff1673ffffffffffffffffffffffffffffffffffffffff166323b872dd3330856040518463ffffffff1660e01b8152600401610d43939291906112f5565b6020604051808303816000875af1158015610d62573d6000803e3d6000fd5b505050506040513d601f19601f82011682018060405250810190610d8691906111ca565b50505050565b60008183610d9a919061135b565b905092915050565b60008183610db091906113b1565b905092915050565b6000610dc330610dc9565b15905090565b6000808273ffffffffffffffffffffffffffffffffffffffff163b119050919050565b60008115159050919050565b610e0181610dec565b82525050565b6000602082019050610e1c6000830184610df8565b92915050565b600080fd5b6000819050919050565b610e3a81610e27565b8114610e4557600080fd5b50565b600081359050610e5781610e31565b92915050565b6000819050919050565b610e7081610e5d565b8114610e7b57600080fd5b50565b600081359050610e8d81610e67565b92915050565b60008060408385031215610eaa57610ea9610e22565b5b6000610eb885828601610e48565b9250506020610ec985828601610e7e565b9150509250929050565b600073ffffffffffffffffffffffffffffffffffffffff82169050919050565b6000610efe82610ed3565b9050919050565b610f0e81610ef3565b82525050565b6000602082019050610f296000830184610f05565b92915050565b600060208284031215610f4557610f44610e22565b5b6000610f5384828501610e7e565b91505092915050565b610f6581610e27565b82525050565b6000602082019050610f806000830184610f5c565b92915050565b610f8f81610ef3565b8114610f9a57600080fd5b50565b600081359050610fac81610f86565b92915050565b60008060408385031215610fc957610fc8610e22565b5b6000610fd785828601610f9d565b9250506020610fe885828601610e7e565b9150509250929050565b60006020828403121561100857611007610e22565b5b600061101684828501610e48565b91505092915050565b60006020828403121561103557611034610e22565b5b600061104384828501610f9d565b91505092915050565b6000806040838503121561106357611062610e22565b5b600061107185828601610e7e565b925050602061108285828601610e48565b9150509250929050565b600082825260208201905092915050565b7f4e6f7420612076616c696420746f6b656e000000000000000000000000000000600082015250565b60006110d360118361108c565b91506110de8261109d565b602082019050919050565b60006020820190508181036000830152611102816110c6565b9050919050565b7f42616c616e6365204e6f7420537566666963656e740000000000000000000000600082015250565b600061113f60158361108c565b915061114a82611109565b602082019050919050565b6000602082019050818103600083015261116e81611132565b9050919050565b600060408201905061118a6000830185610f05565b6111976020830184610f5c565b9392505050565b6111a781610dec565b81146111b257600080fd5b50565b6000815190506111c48161119e565b92915050565b6000602082840312156111e0576111df610e22565b5b60006111ee848285016111b5565b91505092915050565b7f496e76616c696420546f6b656e20416464726573730000000000000000000000600082015250565b600061122d60158361108c565b9150611238826111f7565b602082019050919050565b6000602082019050818103600083015261125c81611220565b9050919050565b7f496e697469616c697a61626c653a20636f6e747261637420697320616c72656160008201527f647920696e697469616c697a6564000000000000000000000000000000000000602082015250565b60006112bf602e8361108c565b91506112ca82611263565b604082019050919050565b600060208201905081810360008301526112ee816112b2565b9050919050565b600060608201905061130a6000830186610f05565b6113176020830185610f05565b6113246040830184610f5c565b949350505050565b7f4e487b7100000000000000000000000000000000000000000000000000000000600052601160045260246000fd5b600061136682610e27565b915061137183610e27565b9250827fffffffffffffffffffffffffffffffffffffffffffffffffffffffffffffffff038211156113a6576113a561132c565b5b828201905092915050565b60006113bc82610e27565b91506113c783610e27565b9250828210156113da576113d961132c565b5b82820390509291505056fea26469706673582212205fc299c803245fbc0c7e00c0f5263c8f326fd7416e7e150dbd677007f1843ab064736f6c634300080b0033",
  "immutableReferences": {},
  "source": "// SPDX-License-Identifier: MIT\r\npragma solidity >=0.5.1 <0.8.12;\r\npragma experimental ABIEncoderV2;\r\n\r\nimport \"../node_modules/@openzeppelin/contracts-upgradeable/proxy/utils/Initializable.sol\";\r\nimport \"../node_modules/@openzeppelin/contracts-upgradeable/token/ERC20/IERC20Upgradeable.sol\";\r\nimport \"../node_modules/@openzeppelin/contracts-upgradeable/utils/math/SafeMathUpgradeable.sol\";\r\nimport \"./PiggyBankDb.sol\";\r\n\r\ncontract Wallet is Initializable, PiggyBankDb {\r\n    using SafeMathUpgradeable for uint;\r\n    \r\n    event TokenAdded(address, bytes32);\r\n    \r\n    modifier onlyOwner(){\r\n        require(msg.sender == owner);\r\n        _;\r\n    }\r\n    \r\n    modifier tokenExist(bytes32 symbol){\r\n        require(tokenMap[symbol].tokenAddress != address(0), \"Not a valid token\");\r\n        _;\r\n    }\r\n\r\n    function initialize(address _owner) public initializer{\r\n        owner = _owner;\r\n        _initialized = true;\r\n    }\r\n\r\n    function addToken(address tokenAddress, bytes32 symbol) external onlyOwner(){\r\n        require(tokenAddress != address(0), \"Invalid Token Address\");\r\n        tokenMap[symbol] = Tokens(tokenAddress, symbol);\r\n        tokenList.push(symbol);\r\n    }\r\n\r\n    function depositToken(bytes32 symbol, uint _amount) external tokenExist(symbol) {\r\n        tokenBalance[msg.sender][symbol] = tokenBalance[msg.sender][symbol].add(_amount);\r\n        IERC20Upgradeable(tokenMap[symbol].tokenAddress).transferFrom(msg.sender, address(this), _amount);\r\n    }\r\n\r\n    function approveDeposit(uint amount, bytes32 symbol) external {\r\n        IERC20Upgradeable(tokenMap[symbol].tokenAddress).approve(address(this), amount);\r\n    }\r\n    \r\n    function withdrawToken(uint _amount, bytes32 symbol) public tokenExist(symbol) {\r\n        require(tokenBalance[msg.sender][symbol] >= _amount, \"Balance Not Sufficent\");\r\n        tokenBalance[msg.sender][symbol] = tokenBalance[msg.sender][symbol].sub(_amount);\r\n        IERC20Upgradeable(tokenMap[symbol].tokenAddress).transfer(msg.sender, _amount);\r\n    }\r\n\r\n    function depositEth () external payable {\r\n        tokenBalance[msg.sender][bytes32(\"ETH\")] = tokenBalance[msg.sender][bytes32(\"ETH\")].add(msg.value);\r\n    }\r\n\r\n    function withdrawEth (uint _amount) external returns(bool success){\r\n        require(tokenBalance[msg.sender][bytes32(\"ETH\")] >= _amount);\r\n        tokenBalance[msg.sender][bytes32(\"ETH\")] = tokenBalance[msg.sender][bytes32(\"ETH\")].sub(_amount);\r\n        msg.sender.call{value: _amount};\r\n        return success;\r\n    }\r\n\r\n    function getBalance(bytes32 symbol) public view virtual returns(uint){\r\n        return tokenBalance[msg.sender][symbol];\r\n    }\r\n\r\n\r\n}\r\n\r\n\r\n\r\n\r\n",
  "sourcePath": "C:\\Users\\USER\\Desktop\\Piggy_Bank_Update\\contracts\\Wallet.sol",
  "compiler": {
    "name": "solc",
    "version": "0.8.11+commit.d7f03943.Emscripten.clang"
  },
  "schemaVersion": "3.4.3",
  "updatedAt": "2022-03-22T15:17:29.104Z",
  "devdoc": {
    "kind": "dev",
    "methods": {},
    "version": 1
  },
  "userdoc": {
    "kind": "user",
    "methods": {},
    "version": 1
  }
}